{
  "_format": "hh-sol-artifact-1",
  "contractName": "AiMints",
  "sourceName": "contracts/AiMints.sol",
  "abi": [
    {
      "inputs": [
        {
          "internalType": "address",
          "name": "whitelistContract",
          "type": "address"
        }
      ],
      "stateMutability": "nonpayable",
      "type": "constructor"
    },
    {
      "anonymous": false,
      "inputs": [
        {
          "indexed": true,
          "internalType": "address",
          "name": "owner",
          "type": "address"
        },
        {
          "indexed": true,
          "internalType": "address",
          "name": "approved",
          "type": "address"
        },
        {
          "indexed": true,
          "internalType": "uint256",
          "name": "tokenId",
          "type": "uint256"
        }
      ],
      "name": "Approval",
      "type": "event"
    },
    {
      "anonymous": false,
      "inputs": [
        {
          "indexed": true,
          "internalType": "address",
          "name": "owner",
          "type": "address"
        },
        {
          "indexed": true,
          "internalType": "address",
          "name": "operator",
          "type": "address"
        },
        {
          "indexed": false,
          "internalType": "bool",
          "name": "approved",
          "type": "bool"
        }
      ],
      "name": "ApprovalForAll",
      "type": "event"
    },
    {
      "anonymous": false,
      "inputs": [
        {
          "indexed": true,
          "internalType": "address",
          "name": "previousOwner",
          "type": "address"
        },
        {
          "indexed": true,
          "internalType": "address",
          "name": "newOwner",
          "type": "address"
        }
      ],
      "name": "OwnershipTransferred",
      "type": "event"
    },
    {
      "anonymous": false,
      "inputs": [
        {
          "indexed": true,
          "internalType": "address",
          "name": "from",
          "type": "address"
        },
        {
          "indexed": true,
          "internalType": "address",
          "name": "to",
          "type": "address"
        },
        {
          "indexed": true,
          "internalType": "uint256",
          "name": "tokenId",
          "type": "uint256"
        }
      ],
      "name": "Transfer",
      "type": "event"
    },
    {
      "stateMutability": "payable",
      "type": "fallback"
    },
    {
      "inputs": [],
      "name": "_paused",
      "outputs": [
        {
          "internalType": "bool",
          "name": "",
          "type": "bool"
        }
      ],
      "stateMutability": "view",
      "type": "function"
    },
    {
      "inputs": [
        {
          "internalType": "address",
          "name": "to",
          "type": "address"
        },
        {
          "internalType": "uint256",
          "name": "tokenId",
          "type": "uint256"
        }
      ],
      "name": "approve",
      "outputs": [],
      "stateMutability": "nonpayable",
      "type": "function"
    },
    {
      "inputs": [
        {
          "internalType": "address",
          "name": "owner",
          "type": "address"
        }
      ],
      "name": "balanceOf",
      "outputs": [
        {
          "internalType": "uint256",
          "name": "",
          "type": "uint256"
        }
      ],
      "stateMutability": "view",
      "type": "function"
    },
    {
      "inputs": [
        {
          "internalType": "uint256",
          "name": "tokenId",
          "type": "uint256"
        }
      ],
      "name": "getApproved",
      "outputs": [
        {
          "internalType": "address",
          "name": "",
          "type": "address"
        }
      ],
      "stateMutability": "view",
      "type": "function"
    },
    {
      "inputs": [
        {
          "internalType": "address",
          "name": "_sender",
          "type": "address"
        }
      ],
      "name": "getNumberOfNFTsMinted",
      "outputs": [
        {
          "internalType": "uint8",
          "name": "",
          "type": "uint8"
        }
      ],
      "stateMutability": "view",
      "type": "function"
    },
    {
      "inputs": [
        {
          "internalType": "address",
          "name": "owner",
          "type": "address"
        },
        {
          "internalType": "address",
          "name": "operator",
          "type": "address"
        }
      ],
      "name": "isApprovedForAll",
      "outputs": [
        {
          "internalType": "bool",
          "name": "",
          "type": "bool"
        }
      ],
      "stateMutability": "view",
      "type": "function"
    },
    {
      "inputs": [],
      "name": "latestTokenId",
      "outputs": [
        {
          "internalType": "uint256",
          "name": "",
          "type": "uint256"
        }
      ],
      "stateMutability": "view",
      "type": "function"
    },
    {
      "inputs": [],
      "name": "name",
      "outputs": [
        {
          "internalType": "string",
          "name": "",
          "type": "string"
        }
      ],
      "stateMutability": "view",
      "type": "function"
    },
    {
      "inputs": [
        {
          "internalType": "address",
          "name": "",
          "type": "address"
        }
      ],
      "name": "nftsMinted",
      "outputs": [
        {
          "internalType": "uint8",
          "name": "",
          "type": "uint8"
        }
      ],
      "stateMutability": "view",
      "type": "function"
    },
    {
      "inputs": [],
      "name": "owner",
      "outputs": [
        {
          "internalType": "address",
          "name": "",
          "type": "address"
        }
      ],
      "stateMutability": "view",
      "type": "function"
    },
    {
      "inputs": [
        {
          "internalType": "uint256",
          "name": "tokenId",
          "type": "uint256"
        }
      ],
      "name": "ownerOf",
      "outputs": [
        {
          "internalType": "address",
          "name": "",
          "type": "address"
        }
      ],
      "stateMutability": "view",
      "type": "function"
    },
    {
      "inputs": [
        {
          "internalType": "string",
          "name": "tokenURI",
          "type": "string"
        }
      ],
      "name": "publicMint",
      "outputs": [],
      "stateMutability": "payable",
      "type": "function"
    },
    {
      "inputs": [],
      "name": "renounceOwnership",
      "outputs": [],
      "stateMutability": "nonpayable",
      "type": "function"
    },
    {
      "inputs": [
        {
          "internalType": "address",
          "name": "from",
          "type": "address"
        },
        {
          "internalType": "address",
          "name": "to",
          "type": "address"
        },
        {
          "internalType": "uint256",
          "name": "tokenId",
          "type": "uint256"
        }
      ],
      "name": "safeTransferFrom",
      "outputs": [],
      "stateMutability": "nonpayable",
      "type": "function"
    },
    {
      "inputs": [
        {
          "internalType": "address",
          "name": "from",
          "type": "address"
        },
        {
          "internalType": "address",
          "name": "to",
          "type": "address"
        },
        {
          "internalType": "uint256",
          "name": "tokenId",
          "type": "uint256"
        },
        {
          "internalType": "bytes",
          "name": "data",
          "type": "bytes"
        }
      ],
      "name": "safeTransferFrom",
      "outputs": [],
      "stateMutability": "nonpayable",
      "type": "function"
    },
    {
      "inputs": [
        {
          "internalType": "address",
          "name": "operator",
          "type": "address"
        },
        {
          "internalType": "bool",
          "name": "approved",
          "type": "bool"
        }
      ],
      "name": "setApprovalForAll",
      "outputs": [],
      "stateMutability": "nonpayable",
      "type": "function"
    },
    {
      "inputs": [
        {
          "internalType": "bool",
          "name": "val",
          "type": "bool"
        }
      ],
      "name": "setPaused",
      "outputs": [],
      "stateMutability": "nonpayable",
      "type": "function"
    },
    {
      "inputs": [
        {
          "internalType": "bytes4",
          "name": "interfaceId",
          "type": "bytes4"
        }
      ],
      "name": "supportsInterface",
      "outputs": [
        {
          "internalType": "bool",
          "name": "",
          "type": "bool"
        }
      ],
      "stateMutability": "view",
      "type": "function"
    },
    {
      "inputs": [],
      "name": "symbol",
      "outputs": [
        {
          "internalType": "string",
          "name": "",
          "type": "string"
        }
      ],
      "stateMutability": "view",
      "type": "function"
    },
    {
      "inputs": [
        {
          "internalType": "uint256",
          "name": "tokenId",
          "type": "uint256"
        }
      ],
      "name": "tokenURI",
      "outputs": [
        {
          "internalType": "string",
          "name": "",
          "type": "string"
        }
      ],
      "stateMutability": "view",
      "type": "function"
    },
    {
      "inputs": [
        {
          "internalType": "address",
          "name": "from",
          "type": "address"
        },
        {
          "internalType": "address",
          "name": "to",
          "type": "address"
        },
        {
          "internalType": "uint256",
          "name": "tokenId",
          "type": "uint256"
        }
      ],
      "name": "transferFrom",
      "outputs": [],
      "stateMutability": "nonpayable",
      "type": "function"
    },
    {
      "inputs": [
        {
          "internalType": "address",
          "name": "newOwner",
          "type": "address"
        }
      ],
      "name": "transferOwnership",
      "outputs": [],
      "stateMutability": "nonpayable",
      "type": "function"
    },
    {
      "inputs": [
        {
          "internalType": "string",
          "name": "tokenURI",
          "type": "string"
        }
      ],
      "name": "whitelistMint",
      "outputs": [],
      "stateMutability": "payable",
      "type": "function"
    },
    {
      "inputs": [],
      "name": "withdraw",
      "outputs": [],
      "stateMutability": "nonpayable",
      "type": "function"
    },
    {
      "stateMutability": "payable",
      "type": "receive"
    }
  ],
  "bytecode": "0x60806040523480156200001157600080fd5b5060405162002101380380620021018339810160408190526200003491620001d4565b60408051808201825260088152674149204d696e747360c01b60208083019182528351808501909452600384526241494d60e81b9084015281519192916200007f916000916200012e565b508051620000959060019060208401906200012e565b505050620000b2620000ac620000d860201b60201c565b620000dc565b600b80546001600160a01b0319166001600160a01b039290921691909117905562000241565b3390565b600780546001600160a01b038381166001600160a01b0319831681179093556040519116919082907f8be0079c531659141344cd1fd0a4f28419497f9722a3daafe3b4186f6b6457e090600090a35050565b8280546200013c9062000204565b90600052602060002090601f016020900481019282620001605760008555620001ab565b82601f106200017b57805160ff1916838001178555620001ab565b82800160010185558215620001ab579182015b82811115620001ab5782518255916020019190600101906200018e565b50620001b9929150620001bd565b5090565b5b80821115620001b95760008155600101620001be565b600060208284031215620001e6578081fd5b81516001600160a01b0381168114620001fd578182fd5b9392505050565b600181811c908216806200021957607f821691505b602082108114156200023b57634e487b7160e01b600052602260045260246000fd5b50919050565b611eb080620002516000396000f3fe6080604052600436106101435760003560e01c80636352211e116100b0578063a22cb4651161006c578063a22cb465146103c3578063b3d7acf9146103e3578063b88d4fde146103f6578063c87b56dd14610416578063e985e9c514610436578063f2fde38b1461047f57005b80636352211e1461031857806370a0823114610338578063715018a6146103665780638c0e83491461037b5780638da5cb5b1461039057806395d89b41146103ae57005b8063175b3dc7116100ff578063175b3dc71461023557806323b872dd146102805780633ccfd60b146102a057806341de982e146102b557806342842e0e146102e55780635c10e6341461030557005b806301ffc9a71461014c57806306fdde0314610181578063081812fc146101a3578063095ea7b3146101db57806316c38b3c146101fb57806316c61ccc1461021b57005b3661014a57005b005b34801561015857600080fd5b5061016c610167366004611b27565b61049f565b60405190151581526020015b60405180910390f35b34801561018d57600080fd5b506101966104f1565b6040516101789190611c55565b3480156101af57600080fd5b506101c36101be366004611ba5565b610583565b6040516001600160a01b039091168152602001610178565b3480156101e757600080fd5b5061014a6101f6366004611ac6565b6105aa565b34801561020757600080fd5b5061014a610216366004611aef565b6106c5565b34801561022757600080fd5b5060095461016c9060ff1681565b34801561024157600080fd5b5061026e610250366004611990565b6001600160a01b03166000908152600a602052604090205460ff1690565b60405160ff9091168152602001610178565b34801561028c57600080fd5b5061014a61029b3660046119dc565b6106e0565b3480156102ac57600080fd5b5061014a610711565b3480156102c157600080fd5b5061026e6102d0366004611990565b600a6020526000908152604090205460ff1681565b3480156102f157600080fd5b5061014a6103003660046119dc565b6107ca565b61014a610313366004611b5f565b6107e5565b34801561032457600080fd5b506101c3610333366004611ba5565b610a09565b34801561034457600080fd5b50610358610353366004611990565b610a69565b604051908152602001610178565b34801561037257600080fd5b5061014a610aef565b34801561038757600080fd5b50610358610b03565b34801561039c57600080fd5b506007546001600160a01b03166101c3565b3480156103ba57600080fd5b50610196610b0f565b3480156103cf57600080fd5b5061014a6103de366004611a90565b610b1e565b61014a6103f1366004611b5f565b610b2d565b34801561040257600080fd5b5061014a610411366004611a17565b610c27565b34801561042257600080fd5b50610196610431366004611ba5565b610c5f565b34801561044257600080fd5b5061016c6104513660046119aa565b6001600160a01b03918216600090815260056020908152604080832093909416825291909152205460ff1690565b34801561048b57600080fd5b5061014a61049a366004611990565b610d63565b60006001600160e01b031982166380ac58cd60e01b14806104d057506001600160e01b03198216635b5e139f60e01b145b806104eb57506301ffc9a760e01b6001600160e01b03198316145b92915050565b60606000805461050090611dcc565b80601f016020809104026020016040519081016040528092919081815260200182805461052c90611dcc565b80156105795780601f1061054e57610100808354040283529160200191610579565b820191906000526020600020905b81548152906001019060200180831161055c57829003601f168201915b5050505050905090565b600061058e82610ddc565b506000908152600460205260409020546001600160a01b031690565b60006105b582610a09565b9050806001600160a01b0316836001600160a01b031614156106285760405162461bcd60e51b815260206004820152602160248201527f4552433732313a20617070726f76616c20746f2063757272656e74206f776e656044820152603960f91b60648201526084015b60405180910390fd5b336001600160a01b038216148061064457506106448133610451565b6106b65760405162461bcd60e51b815260206004820152603d60248201527f4552433732313a20617070726f76652063616c6c6572206973206e6f7420746f60448201527f6b656e206f776e6572206f7220617070726f76656420666f7220616c6c000000606482015260840161061f565b6106c08383610e3b565b505050565b6106cd610ea9565b6009805460ff1916911515919091179055565b6106ea3382610f03565b6107065760405162461bcd60e51b815260040161061f90611c68565b6106c0838383610f81565b610719610ea9565b600061072d6007546001600160a01b031690565b60405190915047906000906001600160a01b0384169083908381818185875af1925050503d806000811461077d576040519150601f19603f3d011682016040523d82523d6000602084013e610782565b606091505b50509050806106c05760405162461bcd60e51b81526020600482015260146024820152732330b4b632b2103a379039b2b73a1022ba3432b960611b604482015260640161061f565b6106c083838360405180602001604052806000815250610c27565b60095460ff16156108345760405162461bcd60e51b815260206004820152601960248201527810dbdb9d1c9858dd0818dd5c9c995b9d1b1e4814185d5cd959603a1b604482015260640161061f565b336000908152600a6020526040902054600360ff9091161061088c5760405162461bcd60e51b815260206004820152601160248201527013585e081b1a5b5a5d081c995858da1959607a1b604482015260640161061f565b600b54604051633af32abf60e01b81523360048201526001600160a01b0390911690633af32abf9060240160206040518083038186803b1580156108cf57600080fd5b505afa1580156108e3573d6000803e3d6000fd5b505050506040513d601f19601f820116820180604052508101906109079190611b0b565b6109535760405162461bcd60e51b815260206004820152601860248201527f20596f7520617265206e6f742077686974656c69737465640000000000000000604482015260640161061f565b662386f26fc100003410156109a65760405162461bcd60e51b8152602060048201526019602482015278115d1a195c881cd95b9d081a5cc81b9bdd0818dbdc9c9958dd603a1b604482015260640161061f565b6109b4600880546001019055565b336000908152600a602052604090205460ff166109d2600182611d64565b336000908152600a60205260408120805460ff191660ff8416179055600854919250506109ff33826110f2565b6106c0818461110c565b6000818152600260205260408120546001600160a01b0316806104eb5760405162461bcd60e51b8152602060048201526018602482015277115490cdcc8c4e881a5b9d985b1a59081d1bdad95b88125160421b604482015260640161061f565b60006001600160a01b038216610ad35760405162461bcd60e51b815260206004820152602960248201527f4552433732313a2061646472657373207a65726f206973206e6f7420612076616044820152683634b21037bbb732b960b91b606482015260840161061f565b506001600160a01b031660009081526003602052604090205490565b610af7610ea9565b610b0160006111a6565b565b6000806104eb60085490565b60606001805461050090611dcc565b610b293383836111f8565b5050565b60095460ff1615610b7c5760405162461bcd60e51b815260206004820152601960248201527810dbdb9d1c9858dd0818dd5c9c995b9d1b1e4814185d5cd959603a1b604482015260640161061f565b336000908152600a6020526040902054600360ff90911610610bd45760405162461bcd60e51b815260206004820152601160248201527013585e081b1a5b5a5d081c995858da1959607a1b604482015260640161061f565b66470de4df8200003410156109a65760405162461bcd60e51b8152602060048201526019602482015278115d1a195c881cd95b9d081a5cc81b9bdd0818dbdc9c9958dd603a1b604482015260640161061f565b610c313383610f03565b610c4d5760405162461bcd60e51b815260040161061f90611c68565b610c59848484846112c7565b50505050565b6060610c6a82610ddc565b60008281526006602052604081208054610c8390611dcc565b80601f0160208091040260200160405190810160405280929190818152602001828054610caf90611dcc565b8015610cfc5780601f10610cd157610100808354040283529160200191610cfc565b820191906000526020600020905b815481529060010190602001808311610cdf57829003601f168201915b505050505090506000610d0d6112fa565b9050805160001415610d20575092915050565b815115610d52578082604051602001610d3a929190611be9565b60405160208183030381529060405292505050919050565b610d5b8461131a565b949350505050565b610d6b610ea9565b6001600160a01b038116610dd05760405162461bcd60e51b815260206004820152602660248201527f4f776e61626c653a206e6577206f776e657220697320746865207a65726f206160448201526564647265737360d01b606482015260840161061f565b610dd9816111a6565b50565b6000818152600260205260409020546001600160a01b0316610dd95760405162461bcd60e51b8152602060048201526018602482015277115490cdcc8c4e881a5b9d985b1a59081d1bdad95b88125160421b604482015260640161061f565b600081815260046020526040902080546001600160a01b0319166001600160a01b0384169081179091558190610e7082610a09565b6001600160a01b03167f8c5be1e5ebec7d5bd14f71427d1e84f3dd0314c0f7b2291e5b200ac8c7c3b92560405160405180910390a45050565b6007546001600160a01b03163314610b015760405162461bcd60e51b815260206004820181905260248201527f4f776e61626c653a2063616c6c6572206973206e6f7420746865206f776e6572604482015260640161061f565b600080610f0f83610a09565b9050806001600160a01b0316846001600160a01b03161480610f5657506001600160a01b0380821660009081526005602090815260408083209388168352929052205460ff165b80610d5b5750836001600160a01b0316610f6f84610583565b6001600160a01b031614949350505050565b826001600160a01b0316610f9482610a09565b6001600160a01b031614610fba5760405162461bcd60e51b815260040161061f90611d07565b6001600160a01b03821661101c5760405162461bcd60e51b8152602060048201526024808201527f4552433732313a207472616e7366657220746f20746865207a65726f206164646044820152637265737360e01b606482015260840161061f565b6110298383836001611381565b826001600160a01b031661103c82610a09565b6001600160a01b0316146110625760405162461bcd60e51b815260040161061f90611d07565b600081815260046020908152604080832080546001600160a01b03199081169091556001600160a01b0387811680865260038552838620805460001901905590871680865283862080546001019055868652600290945282852080549092168417909155905184937fddf252ad1be2c89b69c2b068fc378daa952ba7f163c4a11628f55a4df523b3ef91a4505050565b610b29828260405180602001604052806000815250611409565b6000828152600260205260409020546001600160a01b03166111875760405162461bcd60e51b815260206004820152602e60248201527f45524337323155524953746f726167653a2055524920736574206f66206e6f6e60448201526d32bc34b9ba32b73a103a37b5b2b760911b606482015260840161061f565b600082815260066020908152604090912082516106c092840190611865565b600780546001600160a01b038381166001600160a01b0319831681179093556040519116919082907f8be0079c531659141344cd1fd0a4f28419497f9722a3daafe3b4186f6b6457e090600090a35050565b816001600160a01b0316836001600160a01b0316141561125a5760405162461bcd60e51b815260206004820152601960248201527f4552433732313a20617070726f766520746f2063616c6c657200000000000000604482015260640161061f565b6001600160a01b03838116600081815260056020908152604080832094871680845294825291829020805460ff191686151590811790915591519182527f17307eab39ab6107e8899845ad3d59bd9653f200f220920489ca2b5937696c31910160405180910390a3505050565b6112d2848484610f81565b6112de8484848461143c565b610c595760405162461bcd60e51b815260040161061f90611cb5565b6060604051806060016040528060238152602001611e5860239139905090565b606061132582610ddc565b600061132f6112fa565b9050600081511161134f576040518060200160405280600081525061137a565b8061135984611549565b60405160200161136a929190611be9565b6040516020818303038152906040525b9392505050565b6001811115610c59576001600160a01b038416156113c7576001600160a01b038416600090815260036020526040812080548392906113c1908490611d89565b90915550505b6001600160a01b03831615610c59576001600160a01b038316600090815260036020526040812080548392906113fe908490611d4c565b909155505050505050565b61141383836115f4565b611420600084848461143c565b6106c05760405162461bcd60e51b815260040161061f90611cb5565b60006001600160a01b0384163b1561153e57604051630a85bd0160e11b81526001600160a01b0385169063150b7a0290611480903390899088908890600401611c18565b602060405180830381600087803b15801561149a57600080fd5b505af19250505080156114ca575060408051601f3d908101601f191682019092526114c791810190611b43565b60015b611524573d8080156114f8576040519150601f19603f3d011682016040523d82523d6000602084013e6114fd565b606091505b50805161151c5760405162461bcd60e51b815260040161061f90611cb5565b805181602001fd5b6001600160e01b031916630a85bd0160e11b149050610d5b565b506001949350505050565b606060006115568361178d565b600101905060008167ffffffffffffffff81111561158457634e487b7160e01b600052604160045260246000fd5b6040519080825280601f01601f1916602001820160405280156115ae576020820181803683370190505b5090508181016020015b600019016f181899199a1a9b1b9c1cb0b131b232b360811b600a86061a8153600a85049450846115e7576115ec565b6115b8565b509392505050565b6001600160a01b03821661164a5760405162461bcd60e51b815260206004820181905260248201527f4552433732313a206d696e7420746f20746865207a65726f2061646472657373604482015260640161061f565b6000818152600260205260409020546001600160a01b0316156116af5760405162461bcd60e51b815260206004820152601c60248201527f4552433732313a20746f6b656e20616c7265616479206d696e74656400000000604482015260640161061f565b6116bd600083836001611381565b6000818152600260205260409020546001600160a01b0316156117225760405162461bcd60e51b815260206004820152601c60248201527f4552433732313a20746f6b656e20616c7265616479206d696e74656400000000604482015260640161061f565b6001600160a01b038216600081815260036020908152604080832080546001019055848352600290915280822080546001600160a01b0319168417905551839291907fddf252ad1be2c89b69c2b068fc378daa952ba7f163c4a11628f55a4df523b3ef908290a45050565b60008072184f03e93ff9f4daa797ed6e38ed64bf6a1f0160401b83106117cc5772184f03e93ff9f4daa797ed6e38ed64bf6a1f0160401b830492506040015b6d04ee2d6d415b85acef810000000083106117f8576d04ee2d6d415b85acef8100000000830492506020015b662386f26fc10000831061181657662386f26fc10000830492506010015b6305f5e100831061182e576305f5e100830492506008015b612710831061184257612710830492506004015b60648310611854576064830492506002015b600a83106104eb5760010192915050565b82805461187190611dcc565b90600052602060002090601f01602090048101928261189357600085556118d9565b82601f106118ac57805160ff19168380011785556118d9565b828001600101855582156118d9579182015b828111156118d95782518255916020019190600101906118be565b506118e59291506118e9565b5090565b5b808211156118e557600081556001016118ea565b600067ffffffffffffffff8084111561191957611919611e1d565b604051601f8501601f19908116603f0116810190828211818310171561194157611941611e1d565b8160405280935085815286868601111561195a57600080fd5b858560208301376000602087830101525050509392505050565b80356001600160a01b038116811461198b57600080fd5b919050565b6000602082840312156119a1578081fd5b61137a82611974565b600080604083850312156119bc578081fd5b6119c583611974565b91506119d360208401611974565b90509250929050565b6000806000606084860312156119f0578081fd5b6119f984611974565b9250611a0760208501611974565b9150604084013590509250925092565b60008060008060808587031215611a2c578081fd5b611a3585611974565b9350611a4360208601611974565b925060408501359150606085013567ffffffffffffffff811115611a65578182fd5b8501601f81018713611a75578182fd5b611a84878235602084016118fe565b91505092959194509250565b60008060408385031215611aa2578182fd5b611aab83611974565b91506020830135611abb81611e33565b809150509250929050565b60008060408385031215611ad8578182fd5b611ae183611974565b946020939093013593505050565b600060208284031215611b00578081fd5b813561137a81611e33565b600060208284031215611b1c578081fd5b815161137a81611e33565b600060208284031215611b38578081fd5b813561137a81611e41565b600060208284031215611b54578081fd5b815161137a81611e41565b600060208284031215611b70578081fd5b813567ffffffffffffffff811115611b86578182fd5b8201601f81018413611b96578182fd5b610d5b848235602084016118fe565b600060208284031215611bb6578081fd5b5035919050565b60008151808452611bd5816020860160208601611da0565b601f01601f19169290920160200192915050565b60008351611bfb818460208801611da0565b835190830190611c0f818360208801611da0565b01949350505050565b6001600160a01b0385811682528416602082015260408101839052608060608201819052600090611c4b90830184611bbd565b9695505050505050565b60208152600061137a6020830184611bbd565b6020808252602d908201527f4552433732313a2063616c6c6572206973206e6f7420746f6b656e206f776e6560408201526c1c881bdc88185c1c1c9bdd9959609a1b606082015260800190565b60208082526032908201527f4552433732313a207472616e7366657220746f206e6f6e20455243373231526560408201527131b2b4bb32b91034b6b83632b6b2b73a32b960711b606082015260800190565b60208082526025908201527f4552433732313a207472616e736665722066726f6d20696e636f72726563742060408201526437bbb732b960d91b606082015260800190565b60008219821115611d5f57611d5f611e07565b500190565b600060ff821660ff84168060ff03821115611d8157611d81611e07565b019392505050565b600082821015611d9b57611d9b611e07565b500390565b60005b83811015611dbb578181015183820152602001611da3565b83811115610c595750506000910152565b600181811c90821680611de057607f821691505b60208210811415611e0157634e487b7160e01b600052602260045260246000fd5b50919050565b634e487b7160e01b600052601160045260246000fd5b634e487b7160e01b600052604160045260246000fd5b8015158114610dd957600080fd5b6001600160e01b031981168114610dd957600080fdfe687474703a2f2f3132372e302e302e313a333030302f6170692f746f6b656e5552492fa26469706673582212206a797b3d2b42f9f936d791bf4bd3754367f3381c2563e1642f146cb1ab9903f164736f6c63430008040033",
  "linkReferences": {},
  "deployedLinkReferences": {}
}