{
  "_format": "hh-sol-artifact-1",
  "contractName": "AiMints",
  "sourceName": "contracts/AiMints.sol",
  "abi": [
    {
      "inputs": [
        {
          "internalType": "address",
          "name": "whitelistContract",
          "type": "address"
        }
      ],
      "stateMutability": "nonpayable",
      "type": "constructor"
    },
    {
      "anonymous": false,
      "inputs": [
        {
          "indexed": true,
          "internalType": "address",
          "name": "owner",
          "type": "address"
        },
        {
          "indexed": true,
          "internalType": "address",
          "name": "approved",
          "type": "address"
        },
        {
          "indexed": true,
          "internalType": "uint256",
          "name": "tokenId",
          "type": "uint256"
        }
      ],
      "name": "Approval",
      "type": "event"
    },
    {
      "anonymous": false,
      "inputs": [
        {
          "indexed": true,
          "internalType": "address",
          "name": "owner",
          "type": "address"
        },
        {
          "indexed": true,
          "internalType": "address",
          "name": "operator",
          "type": "address"
        },
        {
          "indexed": false,
          "internalType": "bool",
          "name": "approved",
          "type": "bool"
        }
      ],
      "name": "ApprovalForAll",
      "type": "event"
    },
    {
      "anonymous": false,
      "inputs": [
        {
          "indexed": true,
          "internalType": "address",
          "name": "previousOwner",
          "type": "address"
        },
        {
          "indexed": true,
          "internalType": "address",
          "name": "newOwner",
          "type": "address"
        }
      ],
      "name": "OwnershipTransferred",
      "type": "event"
    },
    {
      "anonymous": false,
      "inputs": [
        {
          "indexed": true,
          "internalType": "address",
          "name": "from",
          "type": "address"
        },
        {
          "indexed": true,
          "internalType": "address",
          "name": "to",
          "type": "address"
        },
        {
          "indexed": true,
          "internalType": "uint256",
          "name": "tokenId",
          "type": "uint256"
        }
      ],
      "name": "Transfer",
      "type": "event"
    },
    {
      "stateMutability": "payable",
      "type": "fallback"
    },
    {
      "inputs": [],
      "name": "_paused",
      "outputs": [
        {
          "internalType": "bool",
          "name": "",
          "type": "bool"
        }
      ],
      "stateMutability": "view",
      "type": "function"
    },
    {
      "inputs": [
        {
          "internalType": "address",
          "name": "to",
          "type": "address"
        },
        {
          "internalType": "uint256",
          "name": "tokenId",
          "type": "uint256"
        }
      ],
      "name": "approve",
      "outputs": [],
      "stateMutability": "nonpayable",
      "type": "function"
    },
    {
      "inputs": [
        {
          "internalType": "address",
          "name": "owner",
          "type": "address"
        }
      ],
      "name": "balanceOf",
      "outputs": [
        {
          "internalType": "uint256",
          "name": "",
          "type": "uint256"
        }
      ],
      "stateMutability": "view",
      "type": "function"
    },
    {
      "inputs": [],
      "name": "contractURI",
      "outputs": [
        {
          "internalType": "string",
          "name": "",
          "type": "string"
        }
      ],
      "stateMutability": "view",
      "type": "function"
    },
    {
      "inputs": [
        {
          "internalType": "uint256",
          "name": "tokenId",
          "type": "uint256"
        }
      ],
      "name": "getApproved",
      "outputs": [
        {
          "internalType": "address",
          "name": "",
          "type": "address"
        }
      ],
      "stateMutability": "view",
      "type": "function"
    },
    {
      "inputs": [
        {
          "internalType": "address",
          "name": "_sender",
          "type": "address"
        }
      ],
      "name": "getNumberOfNFTsMinted",
      "outputs": [
        {
          "internalType": "uint8",
          "name": "",
          "type": "uint8"
        }
      ],
      "stateMutability": "view",
      "type": "function"
    },
    {
      "inputs": [
        {
          "internalType": "address",
          "name": "owner",
          "type": "address"
        },
        {
          "internalType": "address",
          "name": "operator",
          "type": "address"
        }
      ],
      "name": "isApprovedForAll",
      "outputs": [
        {
          "internalType": "bool",
          "name": "",
          "type": "bool"
        }
      ],
      "stateMutability": "view",
      "type": "function"
    },
    {
      "inputs": [],
      "name": "latestTokenId",
      "outputs": [
        {
          "internalType": "uint256",
          "name": "",
          "type": "uint256"
        }
      ],
      "stateMutability": "view",
      "type": "function"
    },
    {
      "inputs": [],
      "name": "name",
      "outputs": [
        {
          "internalType": "string",
          "name": "",
          "type": "string"
        }
      ],
      "stateMutability": "view",
      "type": "function"
    },
    {
      "inputs": [
        {
          "internalType": "address",
          "name": "",
          "type": "address"
        }
      ],
      "name": "nftsMinted",
      "outputs": [
        {
          "internalType": "uint8",
          "name": "",
          "type": "uint8"
        }
      ],
      "stateMutability": "view",
      "type": "function"
    },
    {
      "inputs": [],
      "name": "owner",
      "outputs": [
        {
          "internalType": "address",
          "name": "",
          "type": "address"
        }
      ],
      "stateMutability": "view",
      "type": "function"
    },
    {
      "inputs": [
        {
          "internalType": "uint256",
          "name": "tokenId",
          "type": "uint256"
        }
      ],
      "name": "ownerOf",
      "outputs": [
        {
          "internalType": "address",
          "name": "",
          "type": "address"
        }
      ],
      "stateMutability": "view",
      "type": "function"
    },
    {
      "inputs": [
        {
          "internalType": "string",
          "name": "tokenURI",
          "type": "string"
        }
      ],
      "name": "publicMint",
      "outputs": [],
      "stateMutability": "payable",
      "type": "function"
    },
    {
      "inputs": [],
      "name": "renounceOwnership",
      "outputs": [],
      "stateMutability": "nonpayable",
      "type": "function"
    },
    {
      "inputs": [
        {
          "internalType": "address",
          "name": "from",
          "type": "address"
        },
        {
          "internalType": "address",
          "name": "to",
          "type": "address"
        },
        {
          "internalType": "uint256",
          "name": "tokenId",
          "type": "uint256"
        }
      ],
      "name": "safeTransferFrom",
      "outputs": [],
      "stateMutability": "nonpayable",
      "type": "function"
    },
    {
      "inputs": [
        {
          "internalType": "address",
          "name": "from",
          "type": "address"
        },
        {
          "internalType": "address",
          "name": "to",
          "type": "address"
        },
        {
          "internalType": "uint256",
          "name": "tokenId",
          "type": "uint256"
        },
        {
          "internalType": "bytes",
          "name": "data",
          "type": "bytes"
        }
      ],
      "name": "safeTransferFrom",
      "outputs": [],
      "stateMutability": "nonpayable",
      "type": "function"
    },
    {
      "inputs": [
        {
          "internalType": "address",
          "name": "operator",
          "type": "address"
        },
        {
          "internalType": "bool",
          "name": "approved",
          "type": "bool"
        }
      ],
      "name": "setApprovalForAll",
      "outputs": [],
      "stateMutability": "nonpayable",
      "type": "function"
    },
    {
      "inputs": [
        {
          "internalType": "bool",
          "name": "val",
          "type": "bool"
        }
      ],
      "name": "setPaused",
      "outputs": [],
      "stateMutability": "nonpayable",
      "type": "function"
    },
    {
      "inputs": [
        {
          "internalType": "bytes4",
          "name": "interfaceId",
          "type": "bytes4"
        }
      ],
      "name": "supportsInterface",
      "outputs": [
        {
          "internalType": "bool",
          "name": "",
          "type": "bool"
        }
      ],
      "stateMutability": "view",
      "type": "function"
    },
    {
      "inputs": [],
      "name": "symbol",
      "outputs": [
        {
          "internalType": "string",
          "name": "",
          "type": "string"
        }
      ],
      "stateMutability": "view",
      "type": "function"
    },
    {
      "inputs": [
        {
          "internalType": "uint256",
          "name": "tokenId",
          "type": "uint256"
        }
      ],
      "name": "tokenURI",
      "outputs": [
        {
          "internalType": "string",
          "name": "",
          "type": "string"
        }
      ],
      "stateMutability": "view",
      "type": "function"
    },
    {
      "inputs": [
        {
          "internalType": "address",
          "name": "from",
          "type": "address"
        },
        {
          "internalType": "address",
          "name": "to",
          "type": "address"
        },
        {
          "internalType": "uint256",
          "name": "tokenId",
          "type": "uint256"
        }
      ],
      "name": "transferFrom",
      "outputs": [],
      "stateMutability": "nonpayable",
      "type": "function"
    },
    {
      "inputs": [
        {
          "internalType": "address",
          "name": "newOwner",
          "type": "address"
        }
      ],
      "name": "transferOwnership",
      "outputs": [],
      "stateMutability": "nonpayable",
      "type": "function"
    },
    {
      "inputs": [
        {
          "internalType": "string",
          "name": "tokenURI",
          "type": "string"
        }
      ],
      "name": "whitelistMint",
      "outputs": [],
      "stateMutability": "payable",
      "type": "function"
    },
    {
      "inputs": [],
      "name": "withdraw",
      "outputs": [],
      "stateMutability": "nonpayable",
      "type": "function"
    },
    {
      "stateMutability": "payable",
      "type": "receive"
    }
  ],
  "bytecode": "0x60806040523480156200001157600080fd5b506040516200221e3803806200221e8339810160408190526200003491620001d4565b60408051808201825260088152674149204d696e747360c01b60208083019182528351808501909452600384526241494d60e81b9084015281519192916200007f916000916200012e565b508051620000959060019060208401906200012e565b505050620000b2620000ac620000d860201b60201c565b620000dc565b600b80546001600160a01b0319166001600160a01b039290921691909117905562000241565b3390565b600780546001600160a01b038381166001600160a01b0319831681179093556040519116919082907f8be0079c531659141344cd1fd0a4f28419497f9722a3daafe3b4186f6b6457e090600090a35050565b8280546200013c9062000204565b90600052602060002090601f016020900481019282620001605760008555620001ab565b82601f106200017b57805160ff1916838001178555620001ab565b82800160010185558215620001ab579182015b82811115620001ab5782518255916020019190600101906200018e565b50620001b9929150620001bd565b5090565b5b80821115620001b95760008155600101620001be565b600060208284031215620001e6578081fd5b81516001600160a01b0381168114620001fd578182fd5b9392505050565b600181811c908216806200021957607f821691505b602082108114156200023b57634e487b7160e01b600052602260045260246000fd5b50919050565b611fcd80620002516000396000f3fe60806040526004361061015b5760003560e01c80636352211e116100c8578063a22cb46511610084578063c87b56dd11610061578063c87b56dd1461042e578063e8a3d4851461044e578063e985e9c514610463578063f2fde38b146104ac57005b8063a22cb465146103db578063b3d7acf9146103fb578063b88d4fde1461040e57005b80636352211e1461033057806370a0823114610350578063715018a61461037e5780638c0e8349146103935780638da5cb5b146103a857806395d89b41146103c657005b8063175b3dc711610117578063175b3dc71461024d57806323b872dd146102985780633ccfd60b146102b857806341de982e146102cd57806342842e0e146102fd5780635c10e6341461031d57005b806301ffc9a71461016457806306fdde0314610199578063081812fc146101bb578063095ea7b3146101f357806316c38b3c1461021357806316c61ccc1461023357005b3661016257005b005b34801561017057600080fd5b5061018461017f366004611b74565b6104cc565b60405190151581526020015b60405180910390f35b3480156101a557600080fd5b506101ae61051e565b6040516101909190611ce1565b3480156101c757600080fd5b506101db6101d6366004611bf2565b6105b0565b6040516001600160a01b039091168152602001610190565b3480156101ff57600080fd5b5061016261020e366004611b13565b6105d7565b34801561021f57600080fd5b5061016261022e366004611b3c565b6106f2565b34801561023f57600080fd5b506009546101849060ff1681565b34801561025957600080fd5b506102866102683660046119dd565b6001600160a01b03166000908152600a602052604090205460ff1690565b60405160ff9091168152602001610190565b3480156102a457600080fd5b506101626102b3366004611a29565b61070d565b3480156102c457600080fd5b5061016261073e565b3480156102d957600080fd5b506102866102e83660046119dd565b600a6020526000908152604090205460ff1681565b34801561030957600080fd5b50610162610318366004611a29565b6107f7565b61016261032b366004611bac565b610812565b34801561033c57600080fd5b506101db61034b366004611bf2565b610a36565b34801561035c57600080fd5b5061037061036b3660046119dd565b610a96565b604051908152602001610190565b34801561038a57600080fd5b50610162610b1c565b34801561039f57600080fd5b50610370610b30565b3480156103b457600080fd5b506007546001600160a01b03166101db565b3480156103d257600080fd5b506101ae610b3c565b3480156103e757600080fd5b506101626103f6366004611add565b610b4b565b610162610409366004611bac565b610b5a565b34801561041a57600080fd5b50610162610429366004611a64565b610c54565b34801561043a57600080fd5b506101ae610449366004611bf2565b610c8c565b34801561045a57600080fd5b506101ae610d90565b34801561046f57600080fd5b5061018461047e3660046119f7565b6001600160a01b03918216600090815260056020908152604080832093909416825291909152205460ff1690565b3480156104b857600080fd5b506101626104c73660046119dd565b610db0565b60006001600160e01b031982166380ac58cd60e01b14806104fd57506001600160e01b03198216635b5e139f60e01b145b8061051857506301ffc9a760e01b6001600160e01b03198316145b92915050565b60606000805461052d90611e58565b80601f016020809104026020016040519081016040528092919081815260200182805461055990611e58565b80156105a65780601f1061057b576101008083540402835291602001916105a6565b820191906000526020600020905b81548152906001019060200180831161058957829003601f168201915b5050505050905090565b60006105bb82610e29565b506000908152600460205260409020546001600160a01b031690565b60006105e282610a36565b9050806001600160a01b0316836001600160a01b031614156106555760405162461bcd60e51b815260206004820152602160248201527f4552433732313a20617070726f76616c20746f2063757272656e74206f776e656044820152603960f91b60648201526084015b60405180910390fd5b336001600160a01b03821614806106715750610671813361047e565b6106e35760405162461bcd60e51b815260206004820152603d60248201527f4552433732313a20617070726f76652063616c6c6572206973206e6f7420746f60448201527f6b656e206f776e6572206f7220617070726f76656420666f7220616c6c000000606482015260840161064c565b6106ed8383610e88565b505050565b6106fa610ef6565b6009805460ff1916911515919091179055565b6107173382610f50565b6107335760405162461bcd60e51b815260040161064c90611cf4565b6106ed838383610fce565b610746610ef6565b600061075a6007546001600160a01b031690565b60405190915047906000906001600160a01b0384169083908381818185875af1925050503d80600081146107aa576040519150601f19603f3d011682016040523d82523d6000602084013e6107af565b606091505b50509050806106ed5760405162461bcd60e51b81526020600482015260146024820152732330b4b632b2103a379039b2b73a1022ba3432b960611b604482015260640161064c565b6106ed83838360405180602001604052806000815250610c54565b60095460ff16156108615760405162461bcd60e51b815260206004820152601960248201527810dbdb9d1c9858dd0818dd5c9c995b9d1b1e4814185d5cd959603a1b604482015260640161064c565b336000908152600a6020526040902054600360ff909116106108b95760405162461bcd60e51b815260206004820152601160248201527013585e081b1a5b5a5d081c995858da1959607a1b604482015260640161064c565b600b54604051633af32abf60e01b81523360048201526001600160a01b0390911690633af32abf9060240160206040518083038186803b1580156108fc57600080fd5b505afa158015610910573d6000803e3d6000fd5b505050506040513d601f19601f820116820180604052508101906109349190611b58565b6109805760405162461bcd60e51b815260206004820152601860248201527f20596f7520617265206e6f742077686974656c69737465640000000000000000604482015260640161064c565b662386f26fc100003410156109d35760405162461bcd60e51b8152602060048201526019602482015278115d1a195c881cd95b9d081a5cc81b9bdd0818dbdc9c9958dd603a1b604482015260640161064c565b6109e1600880546001019055565b336000908152600a602052604090205460ff166109ff600182611df0565b336000908152600a60205260408120805460ff191660ff841617905560085491925050610a2c338261113f565b6106ed8184611159565b6000818152600260205260408120546001600160a01b0316806105185760405162461bcd60e51b8152602060048201526018602482015277115490cdcc8c4e881a5b9d985b1a59081d1bdad95b88125160421b604482015260640161064c565b60006001600160a01b038216610b005760405162461bcd60e51b815260206004820152602960248201527f4552433732313a2061646472657373207a65726f206973206e6f7420612076616044820152683634b21037bbb732b960b91b606482015260840161064c565b506001600160a01b031660009081526003602052604090205490565b610b24610ef6565b610b2e60006111f3565b565b60008061051860085490565b60606001805461052d90611e58565b610b56338383611245565b5050565b60095460ff1615610ba95760405162461bcd60e51b815260206004820152601960248201527810dbdb9d1c9858dd0818dd5c9c995b9d1b1e4814185d5cd959603a1b604482015260640161064c565b336000908152600a6020526040902054600360ff90911610610c015760405162461bcd60e51b815260206004820152601160248201527013585e081b1a5b5a5d081c995858da1959607a1b604482015260640161064c565b66470de4df8200003410156109d35760405162461bcd60e51b8152602060048201526019602482015278115d1a195c881cd95b9d081a5cc81b9bdd0818dbdc9c9958dd603a1b604482015260640161064c565b610c5e3383610f50565b610c7a5760405162461bcd60e51b815260040161064c90611cf4565b610c8684848484611314565b50505050565b6060610c9782610e29565b60008281526006602052604081208054610cb090611e58565b80601f0160208091040260200160405190810160405280929190818152602001828054610cdc90611e58565b8015610d295780601f10610cfe57610100808354040283529160200191610d29565b820191906000526020600020905b815481529060010190602001808311610d0c57829003601f168201915b505050505090506000610d3a611347565b9050805160001415610d4d575092915050565b815115610d7f578082604051602001610d67929190611c65565b60405160208183030381529060405292505050919050565b610d8884611367565b949350505050565b60606040518060a0016040528060618152602001611f3760619139905090565b610db8610ef6565b6001600160a01b038116610e1d5760405162461bcd60e51b815260206004820152602660248201527f4f776e61626c653a206e6577206f776e657220697320746865207a65726f206160448201526564647265737360d01b606482015260840161064c565b610e26816111f3565b50565b6000818152600260205260409020546001600160a01b0316610e265760405162461bcd60e51b8152602060048201526018602482015277115490cdcc8c4e881a5b9d985b1a59081d1bdad95b88125160421b604482015260640161064c565b600081815260046020526040902080546001600160a01b0319166001600160a01b0384169081179091558190610ebd82610a36565b6001600160a01b03167f8c5be1e5ebec7d5bd14f71427d1e84f3dd0314c0f7b2291e5b200ac8c7c3b92560405160405180910390a45050565b6007546001600160a01b03163314610b2e5760405162461bcd60e51b815260206004820181905260248201527f4f776e61626c653a2063616c6c6572206973206e6f7420746865206f776e6572604482015260640161064c565b600080610f5c83610a36565b9050806001600160a01b0316846001600160a01b03161480610fa357506001600160a01b0380821660009081526005602090815260408083209388168352929052205460ff165b80610d885750836001600160a01b0316610fbc846105b0565b6001600160a01b031614949350505050565b826001600160a01b0316610fe182610a36565b6001600160a01b0316146110075760405162461bcd60e51b815260040161064c90611d93565b6001600160a01b0382166110695760405162461bcd60e51b8152602060048201526024808201527f4552433732313a207472616e7366657220746f20746865207a65726f206164646044820152637265737360e01b606482015260840161064c565b61107683838360016113ce565b826001600160a01b031661108982610a36565b6001600160a01b0316146110af5760405162461bcd60e51b815260040161064c90611d93565b600081815260046020908152604080832080546001600160a01b03199081169091556001600160a01b0387811680865260038552838620805460001901905590871680865283862080546001019055868652600290945282852080549092168417909155905184937fddf252ad1be2c89b69c2b068fc378daa952ba7f163c4a11628f55a4df523b3ef91a4505050565b610b56828260405180602001604052806000815250611456565b6000828152600260205260409020546001600160a01b03166111d45760405162461bcd60e51b815260206004820152602e60248201527f45524337323155524953746f726167653a2055524920736574206f66206e6f6e60448201526d32bc34b9ba32b73a103a37b5b2b760911b606482015260840161064c565b600082815260066020908152604090912082516106ed928401906118b2565b600780546001600160a01b038381166001600160a01b0319831681179093556040519116919082907f8be0079c531659141344cd1fd0a4f28419497f9722a3daafe3b4186f6b6457e090600090a35050565b816001600160a01b0316836001600160a01b031614156112a75760405162461bcd60e51b815260206004820152601960248201527f4552433732313a20617070726f766520746f2063616c6c657200000000000000604482015260640161064c565b6001600160a01b03838116600081815260056020908152604080832094871680845294825291829020805460ff191686151590811790915591519182527f17307eab39ab6107e8899845ad3d59bd9653f200f220920489ca2b5937696c31910160405180910390a3505050565b61131f848484610fce565b61132b84848484611489565b610c865760405162461bcd60e51b815260040161064c90611d41565b6060604051806080016040528060538152602001611ee460539139905090565b606061137282610e29565b600061137c611347565b9050600081511161139c57604051806020016040528060008152506113c7565b806113a684611596565b6040516020016113b7929190611c36565b6040516020818303038152906040525b9392505050565b6001811115610c86576001600160a01b03841615611414576001600160a01b0384166000908152600360205260408120805483929061140e908490611e15565b90915550505b6001600160a01b03831615610c86576001600160a01b0383166000908152600360205260408120805483929061144b908490611dd8565b909155505050505050565b6114608383611641565b61146d6000848484611489565b6106ed5760405162461bcd60e51b815260040161064c90611d41565b60006001600160a01b0384163b1561158b57604051630a85bd0160e11b81526001600160a01b0385169063150b7a02906114cd903390899088908890600401611ca4565b602060405180830381600087803b1580156114e757600080fd5b505af1925050508015611517575060408051601f3d908101601f1916820190925261151491810190611b90565b60015b611571573d808015611545576040519150601f19603f3d011682016040523d82523d6000602084013e61154a565b606091505b5080516115695760405162461bcd60e51b815260040161064c90611d41565b805181602001fd5b6001600160e01b031916630a85bd0160e11b149050610d88565b506001949350505050565b606060006115a3836117da565b600101905060008167ffffffffffffffff8111156115d157634e487b7160e01b600052604160045260246000fd5b6040519080825280601f01601f1916602001820160405280156115fb576020820181803683370190505b5090508181016020015b600019016f181899199a1a9b1b9c1cb0b131b232b360811b600a86061a8153600a850494508461163457611639565b611605565b509392505050565b6001600160a01b0382166116975760405162461bcd60e51b815260206004820181905260248201527f4552433732313a206d696e7420746f20746865207a65726f2061646472657373604482015260640161064c565b6000818152600260205260409020546001600160a01b0316156116fc5760405162461bcd60e51b815260206004820152601c60248201527f4552433732313a20746f6b656e20616c7265616479206d696e74656400000000604482015260640161064c565b61170a6000838360016113ce565b6000818152600260205260409020546001600160a01b03161561176f5760405162461bcd60e51b815260206004820152601c60248201527f4552433732313a20746f6b656e20616c7265616479206d696e74656400000000604482015260640161064c565b6001600160a01b038216600081815260036020908152604080832080546001019055848352600290915280822080546001600160a01b0319168417905551839291907fddf252ad1be2c89b69c2b068fc378daa952ba7f163c4a11628f55a4df523b3ef908290a45050565b60008072184f03e93ff9f4daa797ed6e38ed64bf6a1f0160401b83106118195772184f03e93ff9f4daa797ed6e38ed64bf6a1f0160401b830492506040015b6d04ee2d6d415b85acef81000000008310611845576d04ee2d6d415b85acef8100000000830492506020015b662386f26fc10000831061186357662386f26fc10000830492506010015b6305f5e100831061187b576305f5e100830492506008015b612710831061188f57612710830492506004015b606483106118a1576064830492506002015b600a83106105185760010192915050565b8280546118be90611e58565b90600052602060002090601f0160209004810192826118e05760008555611926565b82601f106118f957805160ff1916838001178555611926565b82800160010185558215611926579182015b8281111561192657825182559160200191906001019061190b565b50611932929150611936565b5090565b5b808211156119325760008155600101611937565b600067ffffffffffffffff8084111561196657611966611ea9565b604051601f8501601f19908116603f0116810190828211818310171561198e5761198e611ea9565b816040528093508581528686860111156119a757600080fd5b858560208301376000602087830101525050509392505050565b80356001600160a01b03811681146119d857600080fd5b919050565b6000602082840312156119ee578081fd5b6113c7826119c1565b60008060408385031215611a09578081fd5b611a12836119c1565b9150611a20602084016119c1565b90509250929050565b600080600060608486031215611a3d578081fd5b611a46846119c1565b9250611a54602085016119c1565b9150604084013590509250925092565b60008060008060808587031215611a79578081fd5b611a82856119c1565b9350611a90602086016119c1565b925060408501359150606085013567ffffffffffffffff811115611ab2578182fd5b8501601f81018713611ac2578182fd5b611ad18782356020840161194b565b91505092959194509250565b60008060408385031215611aef578182fd5b611af8836119c1565b91506020830135611b0881611ebf565b809150509250929050565b60008060408385031215611b25578182fd5b611b2e836119c1565b946020939093013593505050565b600060208284031215611b4d578081fd5b81356113c781611ebf565b600060208284031215611b69578081fd5b81516113c781611ebf565b600060208284031215611b85578081fd5b81356113c781611ecd565b600060208284031215611ba1578081fd5b81516113c781611ecd565b600060208284031215611bbd578081fd5b813567ffffffffffffffff811115611bd3578182fd5b8201601f81018413611be3578182fd5b610d888482356020840161194b565b600060208284031215611c03578081fd5b5035919050565b60008151808452611c22816020860160208601611e2c565b601f01601f19169290920160200192915050565b60008351611c48818460208801611e2c565b835190830190611c5c818360208801611e2c565b01949350505050565b60008351611c77818460208801611e2c565b835190830190611c8b818360208801611e2c565b64173539b7b760d91b9101908152600501949350505050565b6001600160a01b0385811682528416602082015260408101839052608060608201819052600090611cd790830184611c0a565b9695505050505050565b6020815260006113c76020830184611c0a565b6020808252602d908201527f4552433732313a2063616c6c6572206973206e6f7420746f6b656e206f776e6560408201526c1c881bdc88185c1c1c9bdd9959609a1b606082015260800190565b60208082526032908201527f4552433732313a207472616e7366657220746f206e6f6e20455243373231526560408201527131b2b4bb32b91034b6b83632b6b2b73a32b960711b606082015260800190565b60208082526025908201527f4552433732313a207472616e736665722066726f6d20696e636f72726563742060408201526437bbb732b960d91b606082015260800190565b60008219821115611deb57611deb611e93565b500190565b600060ff821660ff84168060ff03821115611e0d57611e0d611e93565b019392505050565b600082821015611e2757611e27611e93565b500390565b60005b83811015611e47578181015183820152602001611e2f565b83811115610c865750506000910152565b600181811c90821680611e6c57607f821691505b60208210811415611e8d57634e487b7160e01b600052602260045260246000fd5b50919050565b634e487b7160e01b600052601160045260246000fd5b634e487b7160e01b600052604160045260246000fd5b8015158114610e2657600080fd5b6001600160e01b031981168114610e2657600080fdfe68747470733a2f2f61692d6e66742d6d696e74696e672d6e777667656e6475652d6d6f79657a72616262616e69776f726b2d676d61696c636f6d2e76657263656c2e6170702f6170692f746f6b656e5552492f68747470733a2f2f61692d6e66742d6d696e74696e672d6e777667656e6475652d6d6f79657a72616262616e69776f726b2d676d61696c636f6d2e76657263656c2e6170702f6170692f636f6e74726163745552492f636f6e7472616374555249a2646970667358221220f000bcab0c276200541e080f2aab7d89939299ed6c4798d516530fe4778b521964736f6c63430008040033",
  "linkReferences": {},
  "deployedLinkReferences": {}
}