{
  "_format": "hh-sol-artifact-1",
  "contractName": "DeDevs",
  "sourceName": "contracts/DeDevs.sol",
  "abi": [
    {
      "inputs": [
        {
          "internalType": "address",
          "name": "whitelistContract",
          "type": "address"
        }
      ],
      "stateMutability": "nonpayable",
      "type": "constructor"
    },
    {
      "anonymous": false,
      "inputs": [
        {
          "indexed": true,
          "internalType": "address",
          "name": "owner",
          "type": "address"
        },
        {
          "indexed": true,
          "internalType": "address",
          "name": "approved",
          "type": "address"
        },
        {
          "indexed": true,
          "internalType": "uint256",
          "name": "tokenId",
          "type": "uint256"
        }
      ],
      "name": "Approval",
      "type": "event"
    },
    {
      "anonymous": false,
      "inputs": [
        {
          "indexed": true,
          "internalType": "address",
          "name": "owner",
          "type": "address"
        },
        {
          "indexed": true,
          "internalType": "address",
          "name": "operator",
          "type": "address"
        },
        {
          "indexed": false,
          "internalType": "bool",
          "name": "approved",
          "type": "bool"
        }
      ],
      "name": "ApprovalForAll",
      "type": "event"
    },
    {
      "anonymous": false,
      "inputs": [
        {
          "indexed": true,
          "internalType": "address",
          "name": "previousOwner",
          "type": "address"
        },
        {
          "indexed": true,
          "internalType": "address",
          "name": "newOwner",
          "type": "address"
        }
      ],
      "name": "OwnershipTransferred",
      "type": "event"
    },
    {
      "anonymous": false,
      "inputs": [
        {
          "indexed": true,
          "internalType": "address",
          "name": "from",
          "type": "address"
        },
        {
          "indexed": true,
          "internalType": "address",
          "name": "to",
          "type": "address"
        },
        {
          "indexed": true,
          "internalType": "uint256",
          "name": "tokenId",
          "type": "uint256"
        }
      ],
      "name": "Transfer",
      "type": "event"
    },
    {
      "stateMutability": "payable",
      "type": "fallback"
    },
    {
      "inputs": [],
      "name": "_baseTokenURI",
      "outputs": [
        {
          "internalType": "string",
          "name": "",
          "type": "string"
        }
      ],
      "stateMutability": "view",
      "type": "function"
    },
    {
      "inputs": [],
      "name": "_paused",
      "outputs": [
        {
          "internalType": "bool",
          "name": "",
          "type": "bool"
        }
      ],
      "stateMutability": "view",
      "type": "function"
    },
    {
      "inputs": [
        {
          "internalType": "address",
          "name": "to",
          "type": "address"
        },
        {
          "internalType": "uint256",
          "name": "tokenId",
          "type": "uint256"
        }
      ],
      "name": "approve",
      "outputs": [],
      "stateMutability": "nonpayable",
      "type": "function"
    },
    {
      "inputs": [
        {
          "internalType": "address",
          "name": "owner",
          "type": "address"
        }
      ],
      "name": "balanceOf",
      "outputs": [
        {
          "internalType": "uint256",
          "name": "",
          "type": "uint256"
        }
      ],
      "stateMutability": "view",
      "type": "function"
    },
    {
      "inputs": [
        {
          "internalType": "uint256",
          "name": "tokenId",
          "type": "uint256"
        }
      ],
      "name": "getApproved",
      "outputs": [
        {
          "internalType": "address",
          "name": "",
          "type": "address"
        }
      ],
      "stateMutability": "view",
      "type": "function"
    },
    {
      "inputs": [],
      "name": "getNumberOfNFTsMinted",
      "outputs": [
        {
          "internalType": "uint8",
          "name": "",
          "type": "uint8"
        }
      ],
      "stateMutability": "view",
      "type": "function"
    },
    {
      "inputs": [
        {
          "internalType": "address",
          "name": "owner",
          "type": "address"
        },
        {
          "internalType": "address",
          "name": "operator",
          "type": "address"
        }
      ],
      "name": "isApprovedForAll",
      "outputs": [
        {
          "internalType": "bool",
          "name": "",
          "type": "bool"
        }
      ],
      "stateMutability": "view",
      "type": "function"
    },
    {
      "inputs": [],
      "name": "name",
      "outputs": [
        {
          "internalType": "string",
          "name": "",
          "type": "string"
        }
      ],
      "stateMutability": "view",
      "type": "function"
    },
    {
      "inputs": [
        {
          "internalType": "address",
          "name": "",
          "type": "address"
        }
      ],
      "name": "nftsMinted",
      "outputs": [
        {
          "internalType": "uint8",
          "name": "",
          "type": "uint8"
        }
      ],
      "stateMutability": "view",
      "type": "function"
    },
    {
      "inputs": [],
      "name": "owner",
      "outputs": [
        {
          "internalType": "address",
          "name": "",
          "type": "address"
        }
      ],
      "stateMutability": "view",
      "type": "function"
    },
    {
      "inputs": [
        {
          "internalType": "uint256",
          "name": "tokenId",
          "type": "uint256"
        }
      ],
      "name": "ownerOf",
      "outputs": [
        {
          "internalType": "address",
          "name": "",
          "type": "address"
        }
      ],
      "stateMutability": "view",
      "type": "function"
    },
    {
      "inputs": [
        {
          "internalType": "string",
          "name": "tokenURI",
          "type": "string"
        }
      ],
      "name": "publicMint",
      "outputs": [],
      "stateMutability": "payable",
      "type": "function"
    },
    {
      "inputs": [],
      "name": "renounceOwnership",
      "outputs": [],
      "stateMutability": "nonpayable",
      "type": "function"
    },
    {
      "inputs": [
        {
          "internalType": "address",
          "name": "from",
          "type": "address"
        },
        {
          "internalType": "address",
          "name": "to",
          "type": "address"
        },
        {
          "internalType": "uint256",
          "name": "tokenId",
          "type": "uint256"
        }
      ],
      "name": "safeTransferFrom",
      "outputs": [],
      "stateMutability": "nonpayable",
      "type": "function"
    },
    {
      "inputs": [
        {
          "internalType": "address",
          "name": "from",
          "type": "address"
        },
        {
          "internalType": "address",
          "name": "to",
          "type": "address"
        },
        {
          "internalType": "uint256",
          "name": "tokenId",
          "type": "uint256"
        },
        {
          "internalType": "bytes",
          "name": "data",
          "type": "bytes"
        }
      ],
      "name": "safeTransferFrom",
      "outputs": [],
      "stateMutability": "nonpayable",
      "type": "function"
    },
    {
      "inputs": [
        {
          "internalType": "address",
          "name": "operator",
          "type": "address"
        },
        {
          "internalType": "bool",
          "name": "approved",
          "type": "bool"
        }
      ],
      "name": "setApprovalForAll",
      "outputs": [],
      "stateMutability": "nonpayable",
      "type": "function"
    },
    {
      "inputs": [
        {
          "internalType": "bool",
          "name": "val",
          "type": "bool"
        }
      ],
      "name": "setPaused",
      "outputs": [],
      "stateMutability": "nonpayable",
      "type": "function"
    },
    {
      "inputs": [
        {
          "internalType": "bytes4",
          "name": "interfaceId",
          "type": "bytes4"
        }
      ],
      "name": "supportsInterface",
      "outputs": [
        {
          "internalType": "bool",
          "name": "",
          "type": "bool"
        }
      ],
      "stateMutability": "view",
      "type": "function"
    },
    {
      "inputs": [],
      "name": "symbol",
      "outputs": [
        {
          "internalType": "string",
          "name": "",
          "type": "string"
        }
      ],
      "stateMutability": "view",
      "type": "function"
    },
    {
      "inputs": [
        {
          "internalType": "uint256",
          "name": "tokenId",
          "type": "uint256"
        }
      ],
      "name": "tokenURI",
      "outputs": [
        {
          "internalType": "string",
          "name": "",
          "type": "string"
        }
      ],
      "stateMutability": "view",
      "type": "function"
    },
    {
      "inputs": [
        {
          "internalType": "address",
          "name": "from",
          "type": "address"
        },
        {
          "internalType": "address",
          "name": "to",
          "type": "address"
        },
        {
          "internalType": "uint256",
          "name": "tokenId",
          "type": "uint256"
        }
      ],
      "name": "transferFrom",
      "outputs": [],
      "stateMutability": "nonpayable",
      "type": "function"
    },
    {
      "inputs": [
        {
          "internalType": "address",
          "name": "newOwner",
          "type": "address"
        }
      ],
      "name": "transferOwnership",
      "outputs": [],
      "stateMutability": "nonpayable",
      "type": "function"
    },
    {
      "inputs": [
        {
          "internalType": "string",
          "name": "tokenURI",
          "type": "string"
        }
      ],
      "name": "whitelistMint",
      "outputs": [],
      "stateMutability": "payable",
      "type": "function"
    },
    {
      "inputs": [],
      "name": "withdraw",
      "outputs": [],
      "stateMutability": "nonpayable",
      "type": "function"
    },
    {
      "stateMutability": "payable",
      "type": "receive"
    }
  ],
  "bytecode": "0x60806040523480156200001157600080fd5b5060405162002146380380620021468339810160408190526200003491620001d2565b60408051808201825260078152664465204465767360c81b602080830191825283518085019094526002845261111160f21b9084015281519192916200007d916000916200012c565b508051620000939060019060208401906200012c565b505050620000b0620000aa620000d660201b60201c565b620000da565b600c80546001600160a01b0319166001600160a01b03929092169190911790556200023f565b3390565b600780546001600160a01b038381166001600160a01b0319831681179093556040519116919082907f8be0079c531659141344cd1fd0a4f28419497f9722a3daafe3b4186f6b6457e090600090a35050565b8280546200013a9062000202565b90600052602060002090601f0160209004810192826200015e5760008555620001a9565b82601f106200017957805160ff1916838001178555620001a9565b82800160010185558215620001a9579182015b82811115620001a95782518255916020019190600101906200018c565b50620001b7929150620001bb565b5090565b5b80821115620001b75760008155600101620001bc565b600060208284031215620001e4578081fd5b81516001600160a01b0381168114620001fb578182fd5b9392505050565b600181811c908216806200021757607f821691505b602082108114156200023957634e487b7160e01b600052602260045260246000fd5b50919050565b611ef7806200024f6000396000f3fe6080604052600436106101435760003560e01c806370a08231116100b0578063b88d4fde1161006c578063b88d4fde146103a8578063c748728c146103c8578063c87b56dd146103ed578063cfc86f7b1461040d578063e985e9c514610422578063f2fde38b1461046b57005b806370a08231146102ff578063715018a61461032d5780638da5cb5b1461034257806395d89b4114610360578063a22cb46514610375578063b3d7acf91461039557005b806323b872dd116100ff57806323b872dd146102355780633ccfd60b1461025557806341de982e1461026a57806342842e0e146102ac5780635c10e634146102cc5780636352211e146102df57005b806301ffc9a71461014c57806306fdde0314610181578063081812fc146101a3578063095ea7b3146101db57806316c38b3c146101fb57806316c61ccc1461021b57005b3661014a57005b005b34801561015857600080fd5b5061016c610167366004611b91565b61048b565b60405190151581526020015b60405180910390f35b34801561018d57600080fd5b506101966104dd565b6040516101789190611cbf565b3480156101af57600080fd5b506101c36101be366004611c0f565b61056f565b6040516001600160a01b039091168152602001610178565b3480156101e757600080fd5b5061014a6101f6366004611b30565b610596565b34801561020757600080fd5b5061014a610216366004611b59565b6106b1565b34801561022757600080fd5b5060095461016c9060ff1681565b34801561024157600080fd5b5061014a610250366004611a46565b6106cc565b34801561026157600080fd5b5061014a6106fd565b34801561027657600080fd5b5061029a6102853660046119fa565b600a6020526000908152604090205460ff1681565b60405160ff9091168152602001610178565b3480156102b857600080fd5b5061014a6102c7366004611a46565b6107b6565b61014a6102da366004611bc9565b6107d1565b3480156102eb57600080fd5b506101c36102fa366004611c0f565b6109f6565b34801561030b57600080fd5b5061031f61031a3660046119fa565b610a56565b604051908152602001610178565b34801561033957600080fd5b5061014a610adc565b34801561034e57600080fd5b506007546001600160a01b03166101c3565b34801561036c57600080fd5b50610196610af0565b34801561038157600080fd5b5061014a610390366004611afa565b610aff565b61014a6103a3366004611bc9565b610b0e565b3480156103b457600080fd5b5061014a6103c3366004611a81565b610c09565b3480156103d457600080fd5b50336000908152600a602052604090205460ff1661029a565b3480156103f957600080fd5b50610196610408366004611c0f565b610c41565b34801561041957600080fd5b50610196610d52565b34801561042e57600080fd5b5061016c61043d366004611a14565b6001600160a01b03918216600090815260056020908152604080832093909416825291909152205460ff1690565b34801561047757600080fd5b5061014a6104863660046119fa565b610de0565b60006001600160e01b031982166380ac58cd60e01b14806104bc57506001600160e01b03198216635b5e139f60e01b145b806104d757506301ffc9a760e01b6001600160e01b03198316145b92915050565b6060600080546104ec90611e36565b80601f016020809104026020016040519081016040528092919081815260200182805461051890611e36565b80156105655780601f1061053a57610100808354040283529160200191610565565b820191906000526020600020905b81548152906001019060200180831161054857829003601f168201915b5050505050905090565b600061057a82610e59565b506000908152600460205260409020546001600160a01b031690565b60006105a1826109f6565b9050806001600160a01b0316836001600160a01b031614156106145760405162461bcd60e51b815260206004820152602160248201527f4552433732313a20617070726f76616c20746f2063757272656e74206f776e656044820152603960f91b60648201526084015b60405180910390fd5b336001600160a01b03821614806106305750610630813361043d565b6106a25760405162461bcd60e51b815260206004820152603d60248201527f4552433732313a20617070726f76652063616c6c6572206973206e6f7420746f60448201527f6b656e206f776e6572206f7220617070726f76656420666f7220616c6c000000606482015260840161060b565b6106ac8383610eb8565b505050565b6106b9610f26565b6009805460ff1916911515919091179055565b6106d63382610f80565b6106f25760405162461bcd60e51b815260040161060b90611cd2565b6106ac838383610ffe565b610705610f26565b60006107196007546001600160a01b031690565b60405190915047906000906001600160a01b0384169083908381818185875af1925050503d8060008114610769576040519150601f19603f3d011682016040523d82523d6000602084013e61076e565b606091505b50509050806106ac5760405162461bcd60e51b81526020600482015260146024820152732330b4b632b2103a379039b2b73a1022ba3432b960611b604482015260640161060b565b6106ac83838360405180602001604052806000815250610c09565b60095460ff16156108205760405162461bcd60e51b815260206004820152601960248201527810dbdb9d1c9858dd0818dd5c9c995b9d1b1e4814185d5cd959603a1b604482015260640161060b565b336000908152600a6020526040902054600360ff909116106108785760405162461bcd60e51b815260206004820152601160248201527013585e081b1a5b5a5d081c995858da1959607a1b604482015260640161060b565b600c54604051633af32abf60e01b81523360048201526001600160a01b0390911690633af32abf9060240160206040518083038186803b1580156108bb57600080fd5b505afa1580156108cf573d6000803e3d6000fd5b505050506040513d601f19601f820116820180604052508101906108f39190611b75565b61093f5760405162461bcd60e51b815260206004820152601860248201527f20596f7520617265206e6f742077686974656c69737465640000000000000000604482015260640161060b565b67016345785d8a00003410156109935760405162461bcd60e51b8152602060048201526019602482015278115d1a195c881cd95b9d081a5cc81b9bdd0818dbdc9c9958dd603a1b604482015260640161060b565b6109a1600880546001019055565b336000908152600a602052604090205460ff166109bf600182611dce565b336000908152600a60205260408120805460ff191660ff8416179055600854919250506109ec338261116f565b6106ac8184611189565b6000818152600260205260408120546001600160a01b0316806104d75760405162461bcd60e51b8152602060048201526018602482015277115490cdcc8c4e881a5b9d985b1a59081d1bdad95b88125160421b604482015260640161060b565b60006001600160a01b038216610ac05760405162461bcd60e51b815260206004820152602960248201527f4552433732313a2061646472657373207a65726f206973206e6f7420612076616044820152683634b21037bbb732b960b91b606482015260840161060b565b506001600160a01b031660009081526003602052604090205490565b610ae4610f26565b610aee6000611223565b565b6060600180546104ec90611e36565b610b0a338383611275565b5050565b60095460ff1615610b5d5760405162461bcd60e51b815260206004820152601960248201527810dbdb9d1c9858dd0818dd5c9c995b9d1b1e4814185d5cd959603a1b604482015260640161060b565b336000908152600a6020526040902054600360ff90911610610bb55760405162461bcd60e51b815260206004820152601160248201527013585e081b1a5b5a5d081c995858da1959607a1b604482015260640161060b565b6702c68af0bb1400003410156109935760405162461bcd60e51b8152602060048201526019602482015278115d1a195c881cd95b9d081a5cc81b9bdd0818dbdc9c9958dd603a1b604482015260640161060b565b610c133383610f80565b610c2f5760405162461bcd60e51b815260040161060b90611cd2565b610c3b84848484611344565b50505050565b6060610c4c82610e59565b60008281526006602052604081208054610c6590611e36565b80601f0160208091040260200160405190810160405280929190818152602001828054610c9190611e36565b8015610cde5780601f10610cb357610100808354040283529160200191610cde565b820191906000526020600020905b815481529060010190602001808311610cc157829003601f168201915b505050505090506000610cfc60408051602081019091526000815290565b9050805160001415610d0f575092915050565b815115610d41578082604051602001610d29929190611c53565b60405160208183030381529060405292505050919050565b610d4a84611377565b949350505050565b600b8054610d5f90611e36565b80601f0160208091040260200160405190810160405280929190818152602001828054610d8b90611e36565b8015610dd85780601f10610dad57610100808354040283529160200191610dd8565b820191906000526020600020905b815481529060010190602001808311610dbb57829003601f168201915b505050505081565b610de8610f26565b6001600160a01b038116610e4d5760405162461bcd60e51b815260206004820152602660248201527f4f776e61626c653a206e6577206f776e657220697320746865207a65726f206160448201526564647265737360d01b606482015260840161060b565b610e5681611223565b50565b6000818152600260205260409020546001600160a01b0316610e565760405162461bcd60e51b8152602060048201526018602482015277115490cdcc8c4e881a5b9d985b1a59081d1bdad95b88125160421b604482015260640161060b565b600081815260046020526040902080546001600160a01b0319166001600160a01b0384169081179091558190610eed826109f6565b6001600160a01b03167f8c5be1e5ebec7d5bd14f71427d1e84f3dd0314c0f7b2291e5b200ac8c7c3b92560405160405180910390a45050565b6007546001600160a01b03163314610aee5760405162461bcd60e51b815260206004820181905260248201527f4f776e61626c653a2063616c6c6572206973206e6f7420746865206f776e6572604482015260640161060b565b600080610f8c836109f6565b9050806001600160a01b0316846001600160a01b03161480610fd357506001600160a01b0380821660009081526005602090815260408083209388168352929052205460ff165b80610d4a5750836001600160a01b0316610fec8461056f565b6001600160a01b031614949350505050565b826001600160a01b0316611011826109f6565b6001600160a01b0316146110375760405162461bcd60e51b815260040161060b90611d71565b6001600160a01b0382166110995760405162461bcd60e51b8152602060048201526024808201527f4552433732313a207472616e7366657220746f20746865207a65726f206164646044820152637265737360e01b606482015260840161060b565b6110a683838360016113eb565b826001600160a01b03166110b9826109f6565b6001600160a01b0316146110df5760405162461bcd60e51b815260040161060b90611d71565b600081815260046020908152604080832080546001600160a01b03199081169091556001600160a01b0387811680865260038552838620805460001901905590871680865283862080546001019055868652600290945282852080549092168417909155905184937fddf252ad1be2c89b69c2b068fc378daa952ba7f163c4a11628f55a4df523b3ef91a4505050565b610b0a828260405180602001604052806000815250611473565b6000828152600260205260409020546001600160a01b03166112045760405162461bcd60e51b815260206004820152602e60248201527f45524337323155524953746f726167653a2055524920736574206f66206e6f6e60448201526d32bc34b9ba32b73a103a37b5b2b760911b606482015260840161060b565b600082815260066020908152604090912082516106ac928401906118cf565b600780546001600160a01b038381166001600160a01b0319831681179093556040519116919082907f8be0079c531659141344cd1fd0a4f28419497f9722a3daafe3b4186f6b6457e090600090a35050565b816001600160a01b0316836001600160a01b031614156112d75760405162461bcd60e51b815260206004820152601960248201527f4552433732313a20617070726f766520746f2063616c6c657200000000000000604482015260640161060b565b6001600160a01b03838116600081815260056020908152604080832094871680845294825291829020805460ff191686151590811790915591519182527f17307eab39ab6107e8899845ad3d59bd9653f200f220920489ca2b5937696c31910160405180910390a3505050565b61134f848484610ffe565b61135b848484846114a6565b610c3b5760405162461bcd60e51b815260040161060b90611d1f565b606061138282610e59565b600061139960408051602081019091526000815290565b905060008151116113b957604051806020016040528060008152506113e4565b806113c3846115b3565b6040516020016113d4929190611c53565b6040516020818303038152906040525b9392505050565b6001811115610c3b576001600160a01b03841615611431576001600160a01b0384166000908152600360205260408120805483929061142b908490611df3565b90915550505b6001600160a01b03831615610c3b576001600160a01b03831660009081526003602052604081208054839290611468908490611db6565b909155505050505050565b61147d838361165e565b61148a60008484846114a6565b6106ac5760405162461bcd60e51b815260040161060b90611d1f565b60006001600160a01b0384163b156115a857604051630a85bd0160e11b81526001600160a01b0385169063150b7a02906114ea903390899088908890600401611c82565b602060405180830381600087803b15801561150457600080fd5b505af1925050508015611534575060408051601f3d908101601f1916820190925261153191810190611bad565b60015b61158e573d808015611562576040519150601f19603f3d011682016040523d82523d6000602084013e611567565b606091505b5080516115865760405162461bcd60e51b815260040161060b90611d1f565b805181602001fd5b6001600160e01b031916630a85bd0160e11b149050610d4a565b506001949350505050565b606060006115c0836117f7565b600101905060008167ffffffffffffffff8111156115ee57634e487b7160e01b600052604160045260246000fd5b6040519080825280601f01601f191660200182016040528015611618576020820181803683370190505b5090508181016020015b600019016f181899199a1a9b1b9c1cb0b131b232b360811b600a86061a8153600a850494508461165157611656565b611622565b509392505050565b6001600160a01b0382166116b45760405162461bcd60e51b815260206004820181905260248201527f4552433732313a206d696e7420746f20746865207a65726f2061646472657373604482015260640161060b565b6000818152600260205260409020546001600160a01b0316156117195760405162461bcd60e51b815260206004820152601c60248201527f4552433732313a20746f6b656e20616c7265616479206d696e74656400000000604482015260640161060b565b6117276000838360016113eb565b6000818152600260205260409020546001600160a01b03161561178c5760405162461bcd60e51b815260206004820152601c60248201527f4552433732313a20746f6b656e20616c7265616479206d696e74656400000000604482015260640161060b565b6001600160a01b038216600081815260036020908152604080832080546001019055848352600290915280822080546001600160a01b0319168417905551839291907fddf252ad1be2c89b69c2b068fc378daa952ba7f163c4a11628f55a4df523b3ef908290a45050565b60008072184f03e93ff9f4daa797ed6e38ed64bf6a1f0160401b83106118365772184f03e93ff9f4daa797ed6e38ed64bf6a1f0160401b830492506040015b6d04ee2d6d415b85acef81000000008310611862576d04ee2d6d415b85acef8100000000830492506020015b662386f26fc10000831061188057662386f26fc10000830492506010015b6305f5e1008310611898576305f5e100830492506008015b61271083106118ac57612710830492506004015b606483106118be576064830492506002015b600a83106104d75760010192915050565b8280546118db90611e36565b90600052602060002090601f0160209004810192826118fd5760008555611943565b82601f1061191657805160ff1916838001178555611943565b82800160010185558215611943579182015b82811115611943578251825591602001919060010190611928565b5061194f929150611953565b5090565b5b8082111561194f5760008155600101611954565b600067ffffffffffffffff8084111561198357611983611e87565b604051601f8501601f19908116603f011681019082821181831017156119ab576119ab611e87565b816040528093508581528686860111156119c457600080fd5b858560208301376000602087830101525050509392505050565b80356001600160a01b03811681146119f557600080fd5b919050565b600060208284031215611a0b578081fd5b6113e4826119de565b60008060408385031215611a26578081fd5b611a2f836119de565b9150611a3d602084016119de565b90509250929050565b600080600060608486031215611a5a578081fd5b611a63846119de565b9250611a71602085016119de565b9150604084013590509250925092565b60008060008060808587031215611a96578081fd5b611a9f856119de565b9350611aad602086016119de565b925060408501359150606085013567ffffffffffffffff811115611acf578182fd5b8501601f81018713611adf578182fd5b611aee87823560208401611968565b91505092959194509250565b60008060408385031215611b0c578182fd5b611b15836119de565b91506020830135611b2581611e9d565b809150509250929050565b60008060408385031215611b42578182fd5b611b4b836119de565b946020939093013593505050565b600060208284031215611b6a578081fd5b81356113e481611e9d565b600060208284031215611b86578081fd5b81516113e481611e9d565b600060208284031215611ba2578081fd5b81356113e481611eab565b600060208284031215611bbe578081fd5b81516113e481611eab565b600060208284031215611bda578081fd5b813567ffffffffffffffff811115611bf0578182fd5b8201601f81018413611c00578182fd5b610d4a84823560208401611968565b600060208284031215611c20578081fd5b5035919050565b60008151808452611c3f816020860160208601611e0a565b601f01601f19169290920160200192915050565b60008351611c65818460208801611e0a565b835190830190611c79818360208801611e0a565b01949350505050565b6001600160a01b0385811682528416602082015260408101839052608060608201819052600090611cb590830184611c27565b9695505050505050565b6020815260006113e46020830184611c27565b6020808252602d908201527f4552433732313a2063616c6c6572206973206e6f7420746f6b656e206f776e6560408201526c1c881bdc88185c1c1c9bdd9959609a1b606082015260800190565b60208082526032908201527f4552433732313a207472616e7366657220746f206e6f6e20455243373231526560408201527131b2b4bb32b91034b6b83632b6b2b73a32b960711b606082015260800190565b60208082526025908201527f4552433732313a207472616e736665722066726f6d20696e636f72726563742060408201526437bbb732b960d91b606082015260800190565b60008219821115611dc957611dc9611e71565b500190565b600060ff821660ff84168060ff03821115611deb57611deb611e71565b019392505050565b600082821015611e0557611e05611e71565b500390565b60005b83811015611e25578181015183820152602001611e0d565b83811115610c3b5750506000910152565b600181811c90821680611e4a57607f821691505b60208210811415611e6b57634e487b7160e01b600052602260045260246000fd5b50919050565b634e487b7160e01b600052601160045260246000fd5b634e487b7160e01b600052604160045260246000fd5b8015158114610e5657600080fd5b6001600160e01b031981168114610e5657600080fdfea264697066735822122069d53d666a321718a1e4080ba6748b40aff67ba20a3680c9dfdc5acc569aa1c264736f6c63430008040033",
  "linkReferences": {},
  "deployedLinkReferences": {}
}