{
  "_format": "hh-sol-artifact-1",
  "contractName": "Whitelist",
  "sourceName": "contracts/Whitelist.sol",
  "abi": [
    {
      "inputs": [
        {
          "internalType": "uint8",
          "name": "_maxWhitelistedAddresses",
          "type": "uint8"
        }
      ],
      "stateMutability": "nonpayable",
      "type": "constructor"
    },
    {
      "inputs": [],
      "name": "addAddressToWhitelist",
      "outputs": [],
      "stateMutability": "nonpayable",
      "type": "function"
    },
    {
      "inputs": [
        {
          "internalType": "address",
          "name": "_sender",
          "type": "address"
        }
      ],
      "name": "isWhitelisted",
      "outputs": [
        {
          "internalType": "bool",
          "name": "",
          "type": "bool"
        }
      ],
      "stateMutability": "view",
      "type": "function"
    },
    {
      "inputs": [],
      "name": "maxWhitelistedAddresses",
      "outputs": [
        {
          "internalType": "uint8",
          "name": "",
          "type": "uint8"
        }
      ],
      "stateMutability": "view",
      "type": "function"
    },
    {
      "inputs": [],
      "name": "numAddressesWhitelisted",
      "outputs": [
        {
          "internalType": "uint8",
          "name": "",
          "type": "uint8"
        }
      ],
      "stateMutability": "view",
      "type": "function"
    },
    {
      "inputs": [
        {
          "internalType": "address",
          "name": "",
          "type": "address"
        }
      ],
      "name": "whitelistedAddresses",
      "outputs": [
        {
          "internalType": "bool",
          "name": "",
          "type": "bool"
        }
      ],
      "stateMutability": "view",
      "type": "function"
    }
  ],
  "bytecode": "0x608060405234801561001057600080fd5b5060405161035738038061035783398101604081905261002f91610048565b6000805460ff191660ff92909216919091179055610070565b600060208284031215610059578081fd5b815160ff81168114610069578182fd5b9392505050565b6102d88061007f6000396000f3fe608060405234801561001057600080fd5b50600436106100575760003560e01c806306c933d81461005c57806331a72188146100945780633af32abf146100b35780634011d7cd146100c65780638e7314d9146100d8575b600080fd5b61007f61006a366004610243565b60016020526000908152604090205460ff1681565b60405190151581526020015b60405180910390f35b6000546100a19060ff1681565b60405160ff909116815260200161008b565b61007f6100c1366004610243565b6100e2565b6000546100a190610100900460ff1681565b6100e0610113565b005b6001600160a01b03811660009081526001602052604081205460ff161561010b57506001919050565b506000919050565b3360009081526001602052604090205460ff16156101845760405162461bcd60e51b815260206004820152602360248201527f53656e6465722068617320616c7265616479206265656e2077686974656c69736044820152621d195960ea1b60648201526084015b60405180910390fd5b60005460ff80821661010090920416106101f45760405162461bcd60e51b815260206004820152602b60248201527f4d6f72652061647265737365732063616e27742062652061646465642c206c6960448201526a1b5a5d081c995858da195960aa1b606482015260840161017b565b3360009081526001602081905260408220805460ff19168217905581549091908290610229908290610100900460ff16610271565b92506101000a81548160ff021916908360ff160217905550565b600060208284031215610254578081fd5b81356001600160a01b038116811461026a578182fd5b9392505050565b600060ff821660ff84168060ff0382111561029a57634e487b7160e01b83526011600452602483fd5b01939250505056fea2646970667358221220d81dbf9a8ca46b84e672720592f37daeb759d3321915c6138715fb9748c48def64736f6c63430008040033",
  "linkReferences": {},
  "deployedLinkReferences": {}
}